:030000000208965D
:0C089600787FE4F6D8FD758107020800A9
:0C08A200417269660048617373616E006A
:0308320012088821
:10083500E4FFFEE4FDFC0DBD00010CBC04F8BDFBAE
:0C084500F50FBF00010EEF640A4E70E7D3
:010851002284
:1008520012086FFF6016F5A0D290C291D2921208D0
:0D08620035C292740129F9E43AFA80E422CB
:0E0888008FA0C290C291D292120835C2922265
:10080000E4F5A07F381208327F0E1208327F011201
:1008100008881208357F801208881208357BFF7A15
:100820000879A21208527FC01208887A0879A702B4
:0208300008526C
:10086F00BB010689828A83E0225002E722BBFE0287
:09087F00E32289828A83E49322BA
:00000001FF
