:030000000208CD26
:0C08CD00787FE4F6D8FD7581070208353D
:100864006A616D6979615F6D696C697961006B6159
:100874006C6B615F6A6900747261696E20636F6199
:0508840063682036004E
:100800001208187F0E1208BF1208187F011208BFC5
:080810001208187F801208BFD6
:10081800E4FFFEE4FDFC0DBD00010CBC04F8BDFBCB
:0C082800F50FBF00010EEF640A4E70E7F0
:0108340022A1
:100889001208A6FF6016F5A0D290C291D292120862
:0D08990018C292740129F9E43AFA80E422B1
:0E08BF008FA0C290C291D292120818C292224B
:10083500E4F5A07F381208BF1208007BFF7A08791B
:10084500641208897FC01208BF7A08797212088974
:0F0855001208007A08797B1208897F0C0208BF0D
:1008A600BB010689828A83E0225002E722BBFE0250
:0908B600E32289828A83E4932283
:00000001FF
