:03000000020800F3
:0C080000787FE4F6D8FD758125020847DA
:10090F001408003F0006005B004F0066006D007D7D
:06091F000007007F0067E5
:1008DB00E4F51CF51DD3E51D9FEE6480F8E51C6463
:1008EB008098501FE4F51EF51F051FE51F700205CC
:1008FB001EB4FCF5E51EB404F0051DE51D70D60510
:04090B001C80D22258
:10088C00E4F524F525E52525E02408F808E6F5A08F
:10089C00E4F520F521E52125E02408F808E6F5909B
:1008AC007F327E001208DB0521E52170020520D382
:1008BC009409E5206480948040DB0525E5257002D1
:0F08CC000524D39409E5246480948040B880B15A
:10080C0002088CE493A3F8E493A34003F68001F26E
:10081C0008DFF48029E493A3F85407240CC8C333ED
:10082C00C4540F4420C8834004F456800146F6DFBC
:10083C00E4800B010204081020408090090FE47E34
:10084C00019360BCA3FF543F30E509541FFEE493B1
:10085C00A360010ECF54C025E060A840B8E493A378
:10086C00FAE493A3F8E493A3C8C582C8CAC583CAA3
:10087C00F0A3C8C582C8CAC583CADFE9DEE780BE5B
:0109250000D1
:00000001FF
