:030000000208975C
:0C089700787FE4F6D8FD758107020800A8
:0E087B008FA0C290C291D292120859C292224E
:0E0889008FA0D290C291D292120859C2922230
:10085900E4FDFCD3EF9409EE94005015E4FEFF0F7C
:10086900BF00010EBE04F8BFFBF50DBD00010C80F1
:01087900E29C
:01087A00225B
:10080000E4F5A07F3812087B1208597F0812087B94
:100810001208597F0C12087B1208597F0E12087BB0
:100820001208597F8012087B7F4D120889120859DF
:100830007F8112087B7F451208891208597F821236
:10084000087B7F4F1208891208597F8312087B7F2B
:090850005712088912085980AA08
:00000001FF
