:03000000020800F3
:0C080000787FE4F6D8FD758125020847DA
:1008ED001408003F0006005B004F0066006D007DA0
:0608FD000007007F006708
:10088C00E4F51CF51DD3E51D9FEE6480F8E51C64B2
:10089C008098501FE4F51EF51F051FE51F7002051B
:1008AC001EB4FCF5E51EB404F0051DE51D70D6055F
:0408BC001C80D222A8
:1008C000E4F590F520752109E52125E02408F808D4
:1008D000E6F5907F327E0012088CE521152170022A
:0D08E0001520C3E5206480948050DD80D396
:10080C000208C0E493A3F8E493A34003F68001F23A
:10081C0008DFF48029E493A3F85407240CC8C333ED
:10082C00C4540F4420C8834004F456800146F6DFBC
:10083C00E4800B01020408102040809008EDE47E57
:10084C00019360BCA3FF543F30E509541FFEE493B1
:10085C00A360010ECF54C025E060A840B8E493A378
:10086C00FAE493A3F8E493A3C8C582C8CAC583CAA3
:10087C00F0A3C8C582C8CAC583CADFE9DEE780BE5B
:0109030000F3
:00000001FF
