:030000000208FDF6
:0C08FD00787FE4F6D8FD75810E0208003B
:050909004E53494300BC
:10089500E4FFFEE4FDFC0DBD00010CBC04F8BDFB4E
:0C08A500F50FBF00010EEF64064E70E777
:0108B1002224
:0F08E0007F011208EF7F381208EF7F0C0208EF3C
:09086F001208EFAB0CAA0DA90E52
:100878001208B2FF6016F5A0D290C291D292120867
:0D08880095C292740129F9E43AFA80E42245
:0E08EF008FA0C290C291D292120895C292229E
:10080000E4FFFEF50875090F750CFF750D09750EEF
:1008100009AB0CAA0DA90E1208CBC3E5099FF50B75
:10082000E5089EF50A1208E07F8012086FE4FAFBE3
:10083000D3EB950BE50A6480F8EA648098500F7F4B
:100840001C1208EF1208950BBB00010A80E27F8F93
:1008500012086FAA0AAB0BC3EA64809480400F7F32
:0E086000181208EF120895EB1B70EC1A80E9D5
:01086E002267
:1008B200BB010689828A83E0225002E722BBFE0244
:0908C200E32289828A83E4932277
:1008CB00E4FFFE1208B2600C0FEF70010E09E97025
:0508DB00F20A80EF228B
:00000001FF
