:0300000002099F53
:0C099F00787FE4F6D8FD75812702096A14
:10098B00003F0006005B004F0066006D007D000716
:04099B00007F006772
:10093600E4F51CF51DD3E51D9FEE6480F8E51C6407
:100946008098501FE4F51EF51F051FE51F70020570
:100956001EB4FCF5E51EB404F0051DE51D70D605B4
:040966001C80D222FD
:1008F60078087C007D007BFF7A09798B7E007F1467
:100906001208D0E4F5B0F520F521E52125E024080C
:10091600F808E6F5B07F327E001209360521E5219A
:0F09260070020520D39409E5206480948040DBA3
:01093500229F
:10096A00E4F590D2901208F6C290D2911208F6C21B
:10097A0091D2921208F6C292D2911208F6C29180CE
:01098A00E28A
:10080000E709F608DFFA8046E709F208DFFA803EDA
:1008100088828C83E709F0A3DFFA8032E309F608C7
:10082000DFFA8078E309F208DFFA807088828C832F
:10083000E309F0A3DFFA806489828A83E0A3F608E3
:10084000DFFA805889828A83E0A3F208DFFA804CBD
:1008500080D280FA80C680D4806980F28033801094
:1008600080A680EA809A80A880DA80E280CA8033FD
:1008700089828A83ECFAE493A3C8C582C8CCC58375
:10088000CCF0A3C8C582C8CCC583CCDFE9DEE78045
:100890000D89828A83E493A3F608DFF9ECFAA9F0C4
:1008A000EDFB2289828A83ECFAE0A3C8C582C8CC1A
:1008B000C583CCF0A3C8C582C8CCC583CCDFEADE33
:1008C000E880DB89828A83E493A3F208DFF980CC95
:1008D00088F0EF60010E4E60C388F0ED2402B4048E
:1008E0000050B9F582EB2402B4040050AF23234535
:0608F00082239008507302
:00000001FF
