:030000000209965C
:0C099600787FE4F6D8FD75811F0208F69A
:100986000001000200040008001000200040008062
:0F094300E51F25E02408F808E6F5907F327E00D6
:10095200E4F518F519D3E5199FEE6480F8E51864FB
:100962008098501FE4F51AF51B051BE51B70020564
:100972001AB4FCF5E51AB404F00519E51970D605A8
:040982001880D222E5
:0308F600E4F59096
:1008F90078087C007D007BFF7A0979867E007F106D
:100909001208D0E4F51EF51F120943051FE51F70F3
:1009190002051ED39407E51E6480948040EA751E83
:1009290000751F07C3E51E6480948040C312094304
:0A093900E51F151F70EE151E80EA81
:10080000E709F608DFFA8046E709F208DFFA803EDA
:1008100088828C83E709F0A3DFFA8032E309F608C7
:10082000DFFA8078E309F208DFFA807088828C832F
:10083000E309F0A3DFFA806489828A83E0A3F608E3
:10084000DFFA805889828A83E0A3F208DFFA804CBD
:1008500080D280FA80C680D4806980F28033801094
:1008600080A680EA809A80A880DA80E280CA8033FD
:1008700089828A83ECFAE493A3C8C582C8CCC58375
:10088000CCF0A3C8C582C8CCC583CCDFE9DEE78045
:100890000D89828A83E493A3F608DFF9ECFAA9F0C4
:1008A000EDFB2289828A83ECFAE0A3C8C582C8CC1A
:1008B000C583CCF0A3C8C582C8CCC583CCDFEADE33
:1008C000E880DB89828A83E493A3F208DFF980CC95
:1008D00088F0EF60010E4E60C388F0ED2402B4048E
:1008E0000050B9F582EB2402B4040050AF23234535
:0608F00082239008507302
:00000001FF
