:030000000208FDF6
:0C08FD00787FE4F6D8FD75810702080042
:0E08E1008FB0C2A0C2A1D2A21208D2C2A2221F
:0E08EF008FB0D2A0C2A1D2A21208D2C2A22201
:0E08D200E4FFFE0FBF00010EBE04F8BFB0F53C
:0108E00022F5
:0308B2001208D257
:1008B500E4FFFEE4FDFC0DBD00010CED64C84C70C9
:0C08C500F50FBF00010EEF64C84E70E795
:0108D1002204
:10080000E4F5A07F381208E11208D27F011208E156
:100810001208D27F101208E11208D27F0C1208E1F0
:100820001208D27F811208E11208D2C290209408E7
:100830007F311208EF1208B22095087F321208EFBC
:100840001208B220960B7F361208EF1208D2120857
:10085000B5D291C29220940B7F371208EF1208D2C2
:100860001208B520950B7F381208EF1208D2120833
:10087000B520960B7F391208EF1208D21208B5D2B4
:1008800092C29320940B7F2A1208EF1208D212080A
:10089000B520950B7F301208EF1208D21208B52050
:1008A000960B7F231208EF1208D21208B5D29302DA
:0208B000082B13
:00000001FF
