:03000000020800F3
:0C080000787FE4F6D8FD75811F020847E0
:100924001408003F0006005B004F0066006D007D68
:060934000007007F0067D0
:1008FB00E4F51CF51DE4F51EF51F051FE51F700241
:10090B00051EB4E3F5E51EB404F0051DE51D7002EC
:09091B00051C6410451C70DD226E
:10088C00E4F5A0C290209406850BA01208FB2095DD
:10089C0006850DA01208FB209606850FA01208FBFA
:1008AC00D290C2912094068511A01208FB209506C7
:1008BC008513A01208FB2096068515A01208FBD202
:1008CC0091C2922094068517A01208FB20950685EC
:1008DC0019A01208FB209606851BA01208FBD292C9
:0F08EC00C2932095068509A01208FBD293809431
:10080C0002088CE493A3F8E493A34003F68001F26E
:10081C0008DFF48029E493A3F85407240CC8C333ED
:10082C00C4540F4420C8834004F456800146F6DFBC
:10083C00E4800B0102040810204080900924E47E1F
:10084C00019360BCA3FF543F30E509541FFEE493B1
:10085C00A360010ECF54C025E060A840B8E493A378
:10086C00FAE493A3F8E493A3C8C582C8CAC583CAA3
:10087C00F0A3C8C582C8CAC583CADFE9DEE780BE5B
:01093A0000BC
:00000001FF
