:03000000020BE010
:0C0BE000787FE4F6D8FD758138020C2700
:100E6300414D00504D0053756E646179004D6F6EB6
:100E73006461790054756573646179005765646EC4
:100E830065736461790054687572736461790046AF
:0F0E9300726964617900536174757264617900EA
:03100600011400D2
:0C0CD800C2A6D2A57F087E007D007C0033
:080CE4008F2C8E2B8D2A8C2928
:100CEC00758902E4F58CAF2CAE2BAD2AAC29EC4DFA
:100CFC004E4F602FE4FFFED28C308DFDC28D0FBFA6
:100D0C0000010EEF64044E70EE74FF252CF52CE5FB
:100D1C002B34FFF52BE52A34FFF52AE52934FFF5B2
:030D2C002980C358
:010D2F0022A1
:0A0F2B00D2B37F017E007D007C0040
:100F35008F368E358D348C33758902E536F404F59C
:090F45008CD28C308DFDC28D228E
:0A0FF2008F80C2A7120CD8C2A522FE
:0A0FFC008F80D2A7120CD8C2A522E4
:100F9F00120B2AFF600C120FFC740129F9E43AFAC4
:030FAF0080EE22AF
:040E1B008E278F2867
:100E1F00E4FBFAEC701FED14600E14600F146010F9
:100E2F00240370117F80800A7FC080067F94800228
:100E3F007FD4120FF2E4FAFBC3EB9528E527648009
:100E4F00F8EA648098500C7F14120FF20BBB00016C
:030E5F000A80E521
:010E6200226D
:100F86007F38120FF27F01120FF27F80120FF27F6D
:090F960006120FF27F0C020FF2AB
:100D3000AB07AA067C007D64120B55EF2430FDE45E
:100D40003EFCED64304C6007EF2430FF120FFC7C5A
:100D5000007D64AF03AE02120B557E007F0ACFCD3B
:100D6000CFCECCCE120B55EF2430FF120FFCAE02CB
:100D7000AF037C007D0A120B55ED2430FF020FFCFF
:080DCF008C378D388F828E8372
:100DD700D3E582940CE5839400400AE58224F4FF6E
:100DE700E58334FFFE120D307F3A120FFCAF38AEA9
:100DF70037120D307F20120FFCC3E582940CE58378
:100E070094007BFF50067A0E796380047A0E796628
:030E1700120F9F18
:010E1A0022B5
:100FB200C2B2120F2BD2B2120F35C2B3120F35C208
:020FC200B22259
:100FC400C2B2120F2DC2B3120F35D2B2120F35D2E4
:020FD400B32246
:0F0FD600C2B3120F2DD2B2120F35C2B2D2B32254
:0D0FE500120F2BD2B2120F35C2B2D2B322BE
:070F4E00120ED4EF547FFFE7
:100F5500E4FEEF3392B3D2B2C2B2EF25E0FF0EBE8C
:050F650008F0020FD6A8
:100F6A00E4FFFED2B2A2B3E4334207EEC3940750C1
:0B0F7A0004EF25E0FFC2B20EBE08E845
:010F85002249
:100ED400AB07AA067C007D0A120BAAEFC4F8540FD4
:100EE400C868F582EEC454F048F583AE02AF037CC3
:0F0EF400007D0A120BAAED2582FFEC3583FE224A
:100D8000120FB27FD0120F55E4FF120F55120FB29F
:100D90007FD1120F55E4F523F524120F6AE52425BF
:100DA000E02415F8760008A607E5246407452370BB
:100DB00005120FE58003120FD60524E52470020505
:0F0DC00023C39408E5236480948040CE020FC4BF
:100C6C008C278D288A298B2A8F828E83120FB27F34
:100C7C00D0120F55E4FF120F55AF82AE83120F4EF8
:100C8C00AF28AE27120F4EAF2AAE29120ED4EF5456
:100C9C003FFF120F55AF2CAE2B120ED4EF5407FFA3
:100CAC00120F55AF2EAE2D120ED4EF543FFF120F74
:100CBC0055AF30AE2F120ED4EF541FFF120F55AF9D
:0C0CCC0032AE31120ED4120F55020FC4CC
:100F0300120FB27FD0120F55E4FF120F55120FB21A
:100F13007FD1120F55120F6A7515008F16120FE548
:080F2300120FC4AE15AF162237
:10080000E4F525F526FBFA7F01120FF27F80120F27
:10081000F2120D80E515C4F854F0C8E516C4540F63
:10082000487E005407FF7C007D0A120B43E51654F6
:100830000F2FF516EC3EF515FEAF16120B55EF24F3
:1008400030F50CAE15AF167C007D0A120B55ED2469
:1008500030F50DE517C4F854F0C8E518C4540F4836
:100860007E005407FF7C007D0A120B43E518540FED
:100870002FF518EC3EF517FEAF18120B55EF24308C
:10088000F512AE17AF187C007D0A120B55ED24301F
:10089000F513E519C4F854F0C8E51AC4540F487E9E
:1008A000005403FF7C007D0A120B43E51A540F2FFE
:1008B000F51AEC3EF519D3E51A940CE519940040AD
:1008C00022E51A24F4FBE51934FFFAAF03FE120BFC
:1008D000AAEF2430F50EAE02AF037C007D0A120BA6
:1008E000AA801BAE19AF1A7C007D0A120B55EF24AB
:1008F00030F50EAE19AF1A7C007D0A120B55ED24AF
:1009000030F50F531C07751B00851C14E51DC4F83A
:1009100054F0C8E51EC4540F487E005403FF7C0009
:100920007D0A120B43E51E540F2FF51EEC3EF51DFC
:10093000FEAF1E120B55EF2430F510AE1DAF1E7C1E
:10094000007D0A120B55ED2430F511E51FC4F85453
:10095000F0C8E520C4540F487E005401FF7C007DA0
:100960000A120B43E520540F2FF520EC3EF51FFE35
:10097000AF20120B55EF2430F508AE1FAF207C00DE
:100980007D0A120B55ED2430F509E521C4F854F029
:10099000C8E522C4540F487E00540FFF7C007D0A36
:1009A000120B43E522540F2FF522EC3EF521FEAF4A
:1009B00022120B55EF2430F50AAE21AF227C007DC8
:1009C0000A120B55ED2430F50BAF0E120FFCAF0FD2
:1009D000120FFC7F3A120FFCAF12120FFCAF131272
:1009E0000FFC7F3A120FFCAF0C120FFCAF0D120F71
:1009F000FC7F20120FFCC3E51A940CE51994007BD0
:100A0000FF50067A0E796380047A0E7966120F9F82
:100A10007FC0120FF2AF10120FFCAF11120FFC7F4C
:100A20002F120FFCAF08120FFCAF09120FFC7F2F23
:100A3000120FFCAF0A120FFCAF0B120FFC7F20123B
:100A40000FFCE51414B40700505C900A5875F003CD
:100A5000A4C58325F0C58373020A6D020A75020AD4
:100A60007D020A85020A8D020A95020A9D7BFF7AA1
:100A70000E7969802E7BFF7A0E797080267BFF7A53
:100A80000E7977801E7BFF7A0E797F80167BFF7A46
:100A90000E7989800E7BFF7A0E799280067BFF7A31
:100AA0000E7999120F9FC3E516943BE515940050FB
:100AB0006EE4FDFC7F06FE120E1B120F03E515C44B
:100AC000F854F0C8E516C4540F487E005407FF7C64
:100AD000007D0A120B43E516540F2FF516EC3EF578
:100AE00015FEAF16120B55EF2430F50CAE15AF16F0
:100AF0007C007D0A120B55ED2430F50DE5266516B8
:100B00007004E52565156010AF0C120FFCAF0D12D7
:100B10000FFC8515258516267F64120CDE80877FE5
:0A0B2000E87E037D007C00020CE477
:100EA2007580FF120F86752B00752C03752D00754A
:100EB2002E12752F007530077531007532117B0BBC
:100EC2007A007D3B7C007F377E00120C6C1208009A
:020ED20080FBA3
:100BEC00020EA2E493A3F8E493A34003F68001F26F
:100BFC0008DFF48029E493A3F85407240CC8C3330A
:100C0C00C4540F4420C8834004F456800146F6DFD8
:100C1C00E4800B0102040810204080901006E47E52
:100C2C00019360BCA3FF543F30E509541FFEE493CD
:100C3C00A360010ECF54C025E060A840B8E493A394
:100C4C00FAE493A3F8E493A3C8C582C8CAC583CABF
:100C5C00F0A3C8C582C8CAC583CADFE9DEE780BE77
:0110090000E6
:100B2A00BB010689828A83E0225002E722BBFE02C9
:090B3A00E32289828A83E49322FC
:100B4300EF8DF0A4A8F0CF8CF0A428CE8DF0A42EC6
:020B5300FE2280
:100B5500BC000BBE0029EF8DF084FFADF022E4CC84
:100B6500F875F008EF2FFFEE33FEEC33FCEE9DEC4D
:100B7500984005FCEE9DFE0FD5F0E9E4CEFD22ED93
:100B8500F8F5F0EE8420D21CFEADF075F008EF2FDD
:100B9500FFED33FD4007985006D5F0F222C398FDCE
:050BA5000FD5F0EA226B
:100BAA00C2D5EC30E709B2D5E4C39DFDE49CFCEE66
:100BBA0030E715B2D5E4C39FFFE49EFE120B55C37E
:100BCA00E49DFDE49CFC8003120B5530D507C3E479
:060BDA009FFFE49EFE22D5
:00000001FF
