:030000000208876C
:0C088700787FE4F6D8FD75810D020800B2
:04084F007F647E0044
:10085300E4F508F509D3E5099FEE6480F8E508643B
:100863008098501FE4F50AF50B050BE50B700205A4
:100873000AB4FCF5E50AB404F00509E50970D605E8
:040883000880D222F5
:10080000E4F590F5B020A015D29012084FC290D216
:1008100091120853C291D292120853C29220A1158C
:10082000D29312084FC293D294120853C294D29515
:10083000120853C29520A2CDD2B012084FC2B0D236
:0F084000B1120853C2B1D2B2120853C2B280B67D
:00000001FF
