:03000000020AB938
:0C0AB900787FE4F6D8FD758127020A98CA
:100A5C00003F0006005B004F0066006D007D000744
:100A6C00007F0067003F0006005B004F0066006DD2
:100A7C00007D0007007F0067003F0006005B004F11
:0C0A8C000066006D007D0007007F006721
:090A1F00F808E6F5B07F197E002D
:100A2800E4F51CF51DD3E51D9FEE6480F8E51C6414
:100A38008098501FE4F51EF51F051FE51F7002057D
:100A48001EB4FCF5E51EB404F0051DE51D70D605C1
:040A58001C80D2220A
:1008F60078087C007D007BFF7A0A795C7E007F1495
:100906001208D0E4F5B0F5A0F526F527E52725E091
:100916002408120A1FE4F520F521E52125E0240824
:10092600F808E6F5A07F327E00120A280521E521A7
:1009360070020520D39409E5206480948040DB058D
:1009460027E52770020526D39406E5266480948061
:0209560040BAA5
:01095800227C
:1009590078087C007D007BFF7A0A79707E007F141D
:100969001208D0E4F5B0F5A0F526F527E52725E02E
:100979002408120A1FE4F520F521E52125E02408C1
:10098900F808E6F5A07F327E00120A280521E52144
:1009990070020520D39409E5206480948040DB052A
:1009A90027E52770020526D39403E5266480948001
:0209B90040BA42
:0109BB002219
:1009BC0078087C007D007BFF7A0A79847E007F14A6
:1009CC001208D0E4F5B0F5A0F526F527E52725E0CB
:1009DC002408120A1FE4F520F521E52125E024085E
:1009EC00F808E6F5A07F327E00120A280521E521E1
:1009FC0070020520D39409E5206480948040DB05C7
:100A0C0027E52770020526D39402E526648094809E
:020A1C0040BADE
:010A1E0022B5
:100A9800E4F590D2901208F6C290D291120959C288
:100AA80091D2921209BCC292D2911208F6C29180D8
:010AB800E25B
:10080000E709F608DFFA8046E709F208DFFA803EDA
:1008100088828C83E709F0A3DFFA8032E309F608C7
:10082000DFFA8078E309F208DFFA807088828C832F
:10083000E309F0A3DFFA806489828A83E0A3F608E3
:10084000DFFA805889828A83E0A3F208DFFA804CBD
:1008500080D280FA80C680D4806980F28033801094
:1008600080A680EA809A80A880DA80E280CA8033FD
:1008700089828A83ECFAE493A3C8C582C8CCC58375
:10088000CCF0A3C8C582C8CCC583CCDFE9DEE78045
:100890000D89828A83E493A3F608DFF9ECFAA9F0C4
:1008A000EDFB2289828A83ECFAE0A3C8C582C8CC1A
:1008B000C583CCF0A3C8C582C8CCC583CCDFEADE33
:1008C000E880DB89828A83E493A3F208DFF980CC95
:1008D00088F0EF60010E4E60C388F0ED2402B4048E
:1008E0000050B9F582EB2402B4040050AF23234535
:0608F00082239008507302
:00000001FF
